{
  "contractName": "CandidateManagment",
  "abi": [
    {
      "inputs": [],
      "stateMutability": "nonpayable",
      "type": "constructor"
    },
    {
      "inputs": [
        {
          "internalType": "uint256",
          "name": "",
          "type": "uint256"
        }
      ],
      "name": "candidates",
      "outputs": [
        {
          "internalType": "uint256",
          "name": "id",
          "type": "uint256"
        },
        {
          "internalType": "string",
          "name": "name",
          "type": "string"
        },
        {
          "internalType": "string",
          "name": "party",
          "type": "string"
        },
        {
          "internalType": "uint256",
          "name": "voteCount",
          "type": "uint256"
        },
        {
          "internalType": "bool",
          "name": "isActive",
          "type": "bool"
        }
      ],
      "stateMutability": "view",
      "type": "function"
    },
    {
      "inputs": [],
      "name": "candidatesCount",
      "outputs": [
        {
          "internalType": "uint256",
          "name": "",
          "type": "uint256"
        }
      ],
      "stateMutability": "view",
      "type": "function"
    },
    {
      "inputs": [],
      "name": "owner",
      "outputs": [
        {
          "internalType": "address",
          "name": "",
          "type": "address"
        }
      ],
      "stateMutability": "view",
      "type": "function"
    },
    {
      "inputs": [
        {
          "internalType": "string",
          "name": "_name",
          "type": "string"
        },
        {
          "internalType": "string",
          "name": "_party",
          "type": "string"
        }
      ],
      "name": "addCandidate",
      "outputs": [],
      "stateMutability": "nonpayable",
      "type": "function"
    },
    {
      "inputs": [
        {
          "internalType": "uint256",
          "name": "_candidateId",
          "type": "uint256"
        }
      ],
      "name": "removeCandidate",
      "outputs": [],
      "stateMutability": "nonpayable",
      "type": "function"
    },
    {
      "inputs": [
        {
          "internalType": "uint256",
          "name": "_candidateId",
          "type": "uint256"
        }
      ],
      "name": "getCandidate",
      "outputs": [
        {
          "components": [
            {
              "internalType": "uint256",
              "name": "id",
              "type": "uint256"
            },
            {
              "internalType": "string",
              "name": "name",
              "type": "string"
            },
            {
              "internalType": "string",
              "name": "party",
              "type": "string"
            },
            {
              "internalType": "uint256",
              "name": "voteCount",
              "type": "uint256"
            },
            {
              "internalType": "bool",
              "name": "isActive",
              "type": "bool"
            }
          ],
          "internalType": "struct CandidateManagment.Candidate",
          "name": "",
          "type": "tuple"
        }
      ],
      "stateMutability": "view",
      "type": "function"
    },
    {
      "inputs": [
        {
          "internalType": "uint256",
          "name": "_candidateId",
          "type": "uint256"
        }
      ],
      "name": "recordVote",
      "outputs": [],
      "stateMutability": "nonpayable",
      "type": "function"
    },
    {
      "inputs": [],
      "name": "getCandidateCount",
      "outputs": [
        {
          "internalType": "uint256",
          "name": "",
          "type": "uint256"
        }
      ],
      "stateMutability": "view",
      "type": "function"
    },
    {
      "inputs": [
        {
          "internalType": "uint256",
          "name": "_candidateId",
          "type": "uint256"
        },
        {
          "internalType": "string",
          "name": "_newName",
          "type": "string"
        },
        {
          "internalType": "string",
          "name": "_newParty",
          "type": "string"
        },
        {
          "internalType": "bool",
          "name": "_newIsActive",
          "type": "bool"
        }
      ],
      "name": "updateCandidate",
      "outputs": [],
      "stateMutability": "nonpayable",
      "type": "function"
    },
    {
      "inputs": [],
      "name": "listAllCandidates",
      "outputs": [
        {
          "components": [
            {
              "internalType": "uint256",
              "name": "id",
              "type": "uint256"
            },
            {
              "internalType": "string",
              "name": "name",
              "type": "string"
            },
            {
              "internalType": "string",
              "name": "party",
              "type": "string"
            },
            {
              "internalType": "uint256",
              "name": "voteCount",
              "type": "uint256"
            },
            {
              "internalType": "bool",
              "name": "isActive",
              "type": "bool"
            }
          ],
          "internalType": "struct CandidateManagment.Candidate[]",
          "name": "",
          "type": "tuple[]"
        }
      ],
      "stateMutability": "view",
      "type": "function"
    }
  ],
  "bytecode": "0x608060405234801561001057600080fd5b5033600260006101000a81548173ffffffffffffffffffffffffffffffffffffffff021916908373ffffffffffffffffffffffffffffffffffffffff16021790555060006001819055506115e1806100696000396000f3fe608060405234801561001057600080fd5b506004361061009e5760003560e01c80633477ee2e116100665780633477ee2e1461013357806335b8e8201461016757806337876b81146101975780638da5cb5b146101b3578063f27d8b9d146101d15761009e565b806309e9d7e2146100a357806326541b56146100bf57806327686c1d146100db5780632d35a8a2146100f757806330a5634714610115575b600080fd5b6100bd60048036038101906100b89190610dc2565b6101ef565b005b6100d960048036038101906100d49190610d56565b610301565b005b6100f560048036038101906100f09190610dc2565b61045f565b005b6100ff6104de565b60405161010c9190611263565b60405180910390f35b61011d6104e4565b60405161012a9190611263565b60405180910390f35b61014d60048036038101906101489190610dc2565b6104ee565b60405161015e95949392919061127e565b60405180910390f35b610181600480360381019061017c9190610dc2565b610641565b60405161018e9190611241565b60405180910390f35b6101b160048036038101906101ac9190610deb565b610811565b005b6101bb61095d565b6040516101c891906111a4565b60405180910390f35b6101d9610983565b6040516101e691906111bf565b60405180910390f35b600260009054906101000a900473ffffffffffffffffffffffffffffffffffffffff1673ffffffffffffffffffffffffffffffffffffffff163373ffffffffffffffffffffffffffffffffffffffff161461027f576040517f08c379a000000000000000000000000000000000000000000000000000000000815260040161027690611201565b60405180910390fd5b60008111801561029157506001548111155b6102d0576040517f08c379a00000000000000000000000000000000000000000000000000000000081526004016102c790611221565b60405180910390fd5b600080600083815260200190815260200160002060040160006101000a81548160ff02191690831515021790555050565b600260009054906101000a900473ffffffffffffffffffffffffffffffffffffffff1673ffffffffffffffffffffffffffffffffffffffff163373ffffffffffffffffffffffffffffffffffffffff1614610391576040517f08c379a000000000000000000000000000000000000000000000000000000000815260040161038890611201565b60405180910390fd5b6040518060a001604052806001548152602001838152602001828152602001600081526020016001151581525060008060015481526020019081526020016000206000820151816000015560208201518160010190805190602001906103f8929190610bf0565b506040820151816002019080519060200190610415929190610bf0565b506060820151816003015560808201518160040160006101000a81548160ff0219169083151502179055509050506001600081548092919061045690611496565b91905055505050565b60008111801561047157506001548111155b6104b0576040517f08c379a00000000000000000000000000000000000000000000000000000000081526004016104a7906111e1565b60405180910390fd5b60008082815260200190815260200160002060030160008154809291906104d690611496565b919050555050565b60015481565b6000600154905090565b600060205280600052604060002060009150905080600001549080600101805461051790611464565b80601f016020809104026020016040519081016040528092919081815260200182805461054390611464565b80156105905780601f1061056557610100808354040283529160200191610590565b820191906000526020600020905b81548152906001019060200180831161057357829003601f168201915b5050505050908060020180546105a590611464565b80601f01602080910402602001604051908101604052809291908181526020018280546105d190611464565b801561061e5780601f106105f35761010080835404028352916020019161061e565b820191906000526020600020905b81548152906001019060200180831161060157829003601f168201915b5050505050908060030154908060040160009054906101000a900460ff16905085565b610649610c76565b60008211801561065b57506001548211155b61069a576040517f08c379a000000000000000000000000000000000000000000000000000000000815260040161069190611221565b60405180910390fd5b6000808381526020019081526020016000206040518060a0016040529081600082015481526020016001820180546106d190611464565b80601f01602080910402602001604051908101604052809291908181526020018280546106fd90611464565b801561074a5780601f1061071f5761010080835404028352916020019161074a565b820191906000526020600020905b81548152906001019060200180831161072d57829003601f168201915b5050505050815260200160028201805461076390611464565b80601f016020809104026020016040519081016040528092919081815260200182805461078f90611464565b80156107dc5780601f106107b1576101008083540402835291602001916107dc565b820191906000526020600020905b8154815290600101906020018083116107bf57829003601f168201915b50505050508152602001600382015481526020016004820160009054906101000a900460ff1615151515815250509050919050565b600260009054906101000a900473ffffffffffffffffffffffffffffffffffffffff1673ffffffffffffffffffffffffffffffffffffffff163373ffffffffffffffffffffffffffffffffffffffff16146108a1576040517f08c379a000000000000000000000000000000000000000000000000000000000815260040161089890611201565b60405180910390fd5b6000841180156108b357506001548411155b6108f2576040517f08c379a00000000000000000000000000000000000000000000000000000000081526004016108e990611221565b60405180910390fd5b6000806000868152602001908152602001600020905083816001019080519060200190610920929190610bf0565b5082816002019080519060200190610939929190610bf0565b50818160040160006101000a81548160ff0219169083151502179055505050505050565b600260009054906101000a900473ffffffffffffffffffffffffffffffffffffffff1681565b6060600060015467ffffffffffffffff8111156109c9577f4e487b7100000000000000000000000000000000000000000000000000000000600052604160045260246000fd5b604051908082528060200260200182016040528015610a0257816020015b6109ef610c76565b8152602001906001900390816109e75790505b5090506000600190505b6001548111610be8576000808281526020019081526020016000206040518060a001604052908160008201548152602001600182018054610a4c90611464565b80601f0160208091040260200160405190810160405280929190818152602001828054610a7890611464565b8015610ac55780601f10610a9a57610100808354040283529160200191610ac5565b820191906000526020600020905b815481529060010190602001808311610aa857829003601f168201915b50505050508152602001600282018054610ade90611464565b80601f0160208091040260200160405190810160405280929190818152602001828054610b0a90611464565b8015610b575780601f10610b2c57610100808354040283529160200191610b57565b820191906000526020600020905b815481529060010190602001808311610b3a57829003601f168201915b50505050508152602001600382015481526020016004820160009054906101000a900460ff16151515158152505082600183610b9391906113a6565b81518110610bca577f4e487b7100000000000000000000000000000000000000000000000000000000600052603260045260246000fd5b60200260200101819052508080610be090611496565b915050610a0c565b508091505090565b828054610bfc90611464565b90600052602060002090601f016020900481019282610c1e5760008555610c65565b82601f10610c3757805160ff1916838001178555610c65565b82800160010185558215610c65579182015b82811115610c64578251825591602001919060010190610c49565b5b509050610c729190610ca7565b5090565b6040518060a00160405280600081526020016060815260200160608152602001600081526020016000151581525090565b5b80821115610cc0576000816000905550600101610ca8565b5090565b6000610cd7610cd284611310565b6112df565b905082815260208101848484011115610cef57600080fd5b610cfa848285611422565b509392505050565b600081359050610d118161157d565b92915050565b600082601f830112610d2857600080fd5b8135610d38848260208601610cc4565b91505092915050565b600081359050610d5081611594565b92915050565b60008060408385031215610d6957600080fd5b600083013567ffffffffffffffff811115610d8357600080fd5b610d8f85828601610d17565b925050602083013567ffffffffffffffff811115610dac57600080fd5b610db885828601610d17565b9150509250929050565b600060208284031215610dd457600080fd5b6000610de284828501610d41565b91505092915050565b60008060008060808587031215610e0157600080fd5b6000610e0f87828801610d41565b945050602085013567ffffffffffffffff811115610e2c57600080fd5b610e3887828801610d17565b935050604085013567ffffffffffffffff811115610e5557600080fd5b610e6187828801610d17565b9250506060610e7287828801610d02565b91505092959194509250565b6000610e8a838361108c565b905092915050565b610e9b816113da565b82525050565b6000610eac82611350565b610eb68185611373565b935083602082028501610ec885611340565b8060005b85811015610f045784840389528151610ee58582610e7e565b9450610ef083611366565b925060208a01995050600181019050610ecc565b50829750879550505050505092915050565b610f1f816113ec565b82525050565b610f2e816113ec565b82525050565b6000610f3f8261135b565b610f498185611384565b9350610f59818560208601611431565b610f628161156c565b840191505092915050565b6000610f788261135b565b610f828185611395565b9350610f92818560208601611431565b610f9b8161156c565b840191505092915050565b6000610fb3601283611395565b91507f496e76616c69642063616e6469646174652100000000000000000000000000006000830152602082019050919050565b6000610ff3602283611395565b91507f4f6e6c792041646d696e2063616e207065666f726d207468697320616374696f60008301527f6e210000000000000000000000000000000000000000000000000000000000006020830152604082019050919050565b6000611059601983611395565b91507f43616e64696461746520646f6573206e6f742065786973742e000000000000006000830152602082019050919050565b600060a0830160008301516110a46000860182611186565b50602083015184820360208601526110bc8282610f34565b915050604083015184820360408601526110d68282610f34565b91505060608301516110eb6060860182611186565b5060808301516110fe6080860182610f16565b508091505092915050565b600060a0830160008301516111216000860182611186565b50602083015184820360208601526111398282610f34565b915050604083015184820360408601526111538282610f34565b91505060608301516111686060860182611186565b50608083015161117b6080860182610f16565b508091505092915050565b61118f81611418565b82525050565b61119e81611418565b82525050565b60006020820190506111b96000830184610e92565b92915050565b600060208201905081810360008301526111d98184610ea1565b905092915050565b600060208201905081810360008301526111fa81610fa6565b9050919050565b6000602082019050818103600083015261121a81610fe6565b9050919050565b6000602082019050818103600083015261123a8161104c565b9050919050565b6000602082019050818103600083015261125b8184611109565b905092915050565b60006020820190506112786000830184611195565b92915050565b600060a0820190506112936000830188611195565b81810360208301526112a58187610f6d565b905081810360408301526112b98186610f6d565b90506112c86060830185611195565b6112d56080830184610f25565b9695505050505050565b6000604051905081810181811067ffffffffffffffff821117156113065761130561153d565b5b8060405250919050565b600067ffffffffffffffff82111561132b5761132a61153d565b5b601f19601f8301169050602081019050919050565b6000819050602082019050919050565b600081519050919050565b600081519050919050565b6000602082019050919050565b600082825260208201905092915050565b600082825260208201905092915050565b600082825260208201905092915050565b60006113b182611418565b91506113bc83611418565b9250828210156113cf576113ce6114df565b5b828203905092915050565b60006113e5826113f8565b9050919050565b60008115159050919050565b600073ffffffffffffffffffffffffffffffffffffffff82169050919050565b6000819050919050565b82818337600083830152505050565b60005b8381101561144f578082015181840152602081019050611434565b8381111561145e576000848401525b50505050565b6000600282049050600182168061147c57607f821691505b602082108114156114905761148f61150e565b5b50919050565b60006114a182611418565b91507fffffffffffffffffffffffffffffffffffffffffffffffffffffffffffffffff8214156114d4576114d36114df565b5b600182019050919050565b7f4e487b7100000000000000000000000000000000000000000000000000000000600052601160045260246000fd5b7f4e487b7100000000000000000000000000000000000000000000000000000000600052602260045260246000fd5b7f4e487b7100000000000000000000000000000000000000000000000000000000600052604160045260246000fd5b6000601f19601f8301169050919050565b611586816113ec565b811461159157600080fd5b50565b61159d81611418565b81146115a857600080fd5b5056fea2646970667358221220fae57337f6e3944981aa86c8559e34f4712721bad5dadc44a47d95284b0a33b864736f6c63430008000033",
  "immutableReferences": {},
  "source": "// SPDX-License-Identifier: MIT\r\n\r\npragma solidity ^0.8.0;\r\n\r\ncontract CandidateManagment {\r\n\r\n    // Candidate sctructure\r\n    struct Candidate {\r\n        uint id;\r\n        string name;\r\n        string party;\r\n        uint voteCount;\r\n        bool isActive;\r\n        }\r\n\r\n    //Mapping List of cadidates\r\n    mapping(uint => Candidate) public candidates;\r\n    uint public candidatesCount;\r\n\r\n    //Access control modifier - restrict admin functions\r\n    address public owner;\r\n\r\n    modifier onlyOwner() {\r\n        require(msg.sender == owner, \"Only Admin can peform this action!\");\r\n        _;\r\n    }\r\n\r\n    constructor() {\r\n        owner = msg.sender;\r\n        candidatesCount = 0;\r\n    }\r\n\r\n    //Candidates function\r\n    //New cadidate\r\n    function addCandidate(string memory _name, string memory _party) public onlyOwner {\r\n        candidates[candidatesCount] = Candidate({\r\n            id: candidatesCount,\r\n            name: _name,\r\n            party: _party,\r\n            voteCount:0,\r\n            isActive: true\r\n        });\r\n        candidatesCount++;\r\n    }\r\n\r\n    //Remove candidate\r\n    function removeCandidate(uint _candidateId) public onlyOwner {\r\n        require (_candidateId > 0 && _candidateId <= candidatesCount, \"Candidate does not exist.\");\r\n        candidates[_candidateId].isActive= false;  //isActive flag error\r\n    }\r\n    \r\n    //Get candidate (public)\r\n    function getCandidate(uint _candidateId) public view returns (Candidate memory){\r\n        require(_candidateId > 0 && _candidateId <= candidatesCount, \"Candidate does not exist.\");\r\n        return candidates[_candidateId];\r\n    }\r\n\r\n    //Record a vote for a cadidate\r\n    function recordVote(uint _candidateId) public {\r\n        require(_candidateId > 0 && _candidateId <=  candidatesCount, \"Invalid candidate!\");\r\n        candidates[_candidateId].voteCount++; //Increse vote count - selected candidate\r\n    }\r\n\r\n    //Get number of votes of a candidate\r\n    function getCandidateCount() public view returns (uint){\r\n        return  candidatesCount;\r\n    }\r\n\r\n    //Extra functions\r\n    //Update Candidate information\r\n    function updateCandidate (\r\n        uint _candidateId, \r\n        string memory _newName,\r\n        string memory _newParty,\r\n        bool _newIsActive ) public onlyOwner {\r\n        require(_candidateId > 0 && _candidateId <= candidatesCount, \"Candidate does not exist.\");\r\n        Candidate storage candidate = candidates[_candidateId];\r\n        candidate.name = _newName;\r\n        candidate.party = _newParty;\r\n        candidate.isActive = _newIsActive;\r\n    }\r\n\r\n    //List of all candidates\r\n    function listAllCandidates() public view returns (Candidate[] memory){\r\n        Candidate[] memory candidateList = new Candidate[](candidatesCount);\r\n        for  (uint i = 1; i <= candidatesCount; i++) {\r\n            candidateList[i - 1] = candidates[i];\r\n        }\r\n        return candidateList;\r\n    }\r\n}",
  "sourcePath": "F:\\CCT 3\\2 Dist. Digital Transactions\\CA1\\ChainVote\\contracts\\CandidateManagment.sol",
  "compiler": {
    "name": "solc",
    "version": "0.8.0+commit.c7dfd78e.Emscripten.clang"
  },
  "schemaVersion": "3.4.16",
  "updatedAt": "2023-12-03T12:16:57.130Z",
  "devdoc": {
    "kind": "dev",
    "methods": {},
    "version": 1
  },
  "userdoc": {
    "kind": "user",
    "methods": {},
    "version": 1
  }
}