{
  "contractName": "CandidateManagement",
  "abi": [
    {
      "inputs": [],
      "stateMutability": "nonpayable",
      "type": "constructor"
    },
    {
      "inputs": [
        {
          "internalType": "uint256",
          "name": "",
          "type": "uint256"
        }
      ],
      "name": "candidates",
      "outputs": [
        {
          "internalType": "uint256",
          "name": "id",
          "type": "uint256"
        },
        {
          "internalType": "string",
          "name": "name",
          "type": "string"
        },
        {
          "internalType": "string",
          "name": "party",
          "type": "string"
        },
        {
          "internalType": "uint256",
          "name": "voteCount",
          "type": "uint256"
        },
        {
          "internalType": "bool",
          "name": "isActive",
          "type": "bool"
        }
      ],
      "stateMutability": "view",
      "type": "function"
    },
    {
      "inputs": [],
      "name": "candidatesCount",
      "outputs": [
        {
          "internalType": "uint256",
          "name": "",
          "type": "uint256"
        }
      ],
      "stateMutability": "view",
      "type": "function"
    },
    {
      "inputs": [],
      "name": "owner",
      "outputs": [
        {
          "internalType": "address",
          "name": "",
          "type": "address"
        }
      ],
      "stateMutability": "view",
      "type": "function"
    },
    {
      "inputs": [
        {
          "internalType": "string",
          "name": "_name",
          "type": "string"
        },
        {
          "internalType": "string",
          "name": "_party",
          "type": "string"
        }
      ],
      "name": "addCandidate",
      "outputs": [],
      "stateMutability": "nonpayable",
      "type": "function"
    },
    {
      "inputs": [
        {
          "internalType": "uint256",
          "name": "_candidateId",
          "type": "uint256"
        }
      ],
      "name": "removeCandidate",
      "outputs": [],
      "stateMutability": "nonpayable",
      "type": "function"
    },
    {
      "inputs": [
        {
          "internalType": "uint256",
          "name": "_candidateId",
          "type": "uint256"
        }
      ],
      "name": "getCandidate",
      "outputs": [
        {
          "components": [
            {
              "internalType": "uint256",
              "name": "id",
              "type": "uint256"
            },
            {
              "internalType": "string",
              "name": "name",
              "type": "string"
            },
            {
              "internalType": "string",
              "name": "party",
              "type": "string"
            },
            {
              "internalType": "uint256",
              "name": "voteCount",
              "type": "uint256"
            },
            {
              "internalType": "bool",
              "name": "isActive",
              "type": "bool"
            }
          ],
          "internalType": "struct CandidateManagement.Candidate",
          "name": "",
          "type": "tuple"
        }
      ],
      "stateMutability": "view",
      "type": "function"
    },
    {
      "inputs": [
        {
          "internalType": "uint256",
          "name": "_candidateId",
          "type": "uint256"
        }
      ],
      "name": "recordVote",
      "outputs": [],
      "stateMutability": "nonpayable",
      "type": "function"
    },
    {
      "inputs": [],
      "name": "getCandidateCount",
      "outputs": [
        {
          "internalType": "uint256",
          "name": "",
          "type": "uint256"
        }
      ],
      "stateMutability": "view",
      "type": "function"
    },
    {
      "inputs": [
        {
          "internalType": "uint256",
          "name": "_candidateId",
          "type": "uint256"
        },
        {
          "internalType": "string",
          "name": "_newName",
          "type": "string"
        },
        {
          "internalType": "string",
          "name": "_newParty",
          "type": "string"
        },
        {
          "internalType": "bool",
          "name": "_newIsActive",
          "type": "bool"
        }
      ],
      "name": "updateCandidate",
      "outputs": [],
      "stateMutability": "nonpayable",
      "type": "function"
    },
    {
      "inputs": [],
      "name": "listAllCandidates",
      "outputs": [
        {
          "components": [
            {
              "internalType": "uint256",
              "name": "id",
              "type": "uint256"
            },
            {
              "internalType": "string",
              "name": "name",
              "type": "string"
            },
            {
              "internalType": "string",
              "name": "party",
              "type": "string"
            },
            {
              "internalType": "uint256",
              "name": "voteCount",
              "type": "uint256"
            },
            {
              "internalType": "bool",
              "name": "isActive",
              "type": "bool"
            }
          ],
          "internalType": "struct CandidateManagement.Candidate[]",
          "name": "",
          "type": "tuple[]"
        }
      ],
      "stateMutability": "view",
      "type": "function"
    }
  ],
  "bytecode": "0x608060405234801561000f575f80fd5b503360025f6101000a81548173ffffffffffffffffffffffffffffffffffffffff021916908373ffffffffffffffffffffffffffffffffffffffff1602179055505f6001819055506118c4806100645f395ff3fe608060405234801561000f575f80fd5b506004361061009c575f3560e01c80633477ee2e116100645780633477ee2e1461013057806335b8e8201461016457806337876b81146101945780638da5cb5b146101b0578063f27d8b9d146101ce5761009c565b806309e9d7e2146100a057806326541b56146100bc57806327686c1d146100d85780632d35a8a2146100f457806330a5634714610112575b5f80fd5b6100ba60048036038101906100b59190610bc0565b6101ec565b005b6100d660048036038101906100d19190610d27565b6102f8565b005b6100f260048036038101906100ed9190610bc0565b610440565b005b6100fc6104bb565b6040516101099190610dac565b60405180910390f35b61011a6104c1565b6040516101279190610dac565b60405180910390f35b61014a60048036038101906101459190610bc0565b6104ca565b60405161015b959493929190610e59565b60405180910390f35b61017e60048036038101906101799190610bc0565b610613565b60405161018b9190610f98565b60405180910390f35b6101ae60048036038101906101a99190610fe2565b6107da565b005b6101b8610912565b6040516101c591906110bd565b60405180910390f35b6101d6610937565b6040516101e3919061120b565b60405180910390f35b60025f9054906101000a900473ffffffffffffffffffffffffffffffffffffffff1673ffffffffffffffffffffffffffffffffffffffff163373ffffffffffffffffffffffffffffffffffffffff161461027b576040517f08c379a00000000000000000000000000000000000000000000000000000000081526004016102729061129b565b60405180910390fd5b5f8111801561028c57506001548111155b6102cb576040517f08c379a00000000000000000000000000000000000000000000000000000000081526004016102c290611329565b60405180910390fd5b5f805f8381526020019081526020015f206004015f6101000a81548160ff02191690831515021790555050565b60025f9054906101000a900473ffffffffffffffffffffffffffffffffffffffff1673ffffffffffffffffffffffffffffffffffffffff163373ffffffffffffffffffffffffffffffffffffffff1614610387576040517f08c379a000000000000000000000000000000000000000000000000000000000815260040161037e9061129b565b60405180910390fd5b60015f81548092919061039990611374565b91905055506040518060a0016040528060015481526020018381526020018281526020015f8152602001600115158152505f8060015481526020019081526020015f205f820151815f015560208201518160010190816103f991906115b5565b50604082015181600201908161040f91906115b5565b50606082015181600301556080820151816004015f6101000a81548160ff0219169083151502179055509050505050565b5f8111801561045157506001548111155b610490576040517f08c379a0000000000000000000000000000000000000000000000000000000008152600401610487906116f4565b60405180910390fd5b5f808281526020019081526020015f206003015f8154809291906104b390611374565b919050555050565b60015481565b5f600154905090565b5f602052805f5260405f205f91509050805f0154908060010180546104ee906113e8565b80601f016020809104026020016040519081016040528092919081815260200182805461051a906113e8565b80156105655780601f1061053c57610100808354040283529160200191610565565b820191905f5260205f20905b81548152906001019060200180831161054857829003601f168201915b50505050509080600201805461057a906113e8565b80601f01602080910402602001604051908101604052809291908181526020018280546105a6906113e8565b80156105f15780601f106105c8576101008083540402835291602001916105f1565b820191905f5260205f20905b8154815290600101906020018083116105d457829003601f168201915b505050505090806003015490806004015f9054906101000a900460ff16905085565b61061b610b4e565b5f8211801561062c57506001548211155b61066b576040517f08c379a000000000000000000000000000000000000000000000000000000000815260040161066290611782565b60405180910390fd5b5f808381526020019081526020015f206040518060a00160405290815f820154815260200160018201805461069f906113e8565b80601f01602080910402602001604051908101604052809291908181526020018280546106cb906113e8565b80156107165780601f106106ed57610100808354040283529160200191610716565b820191905f5260205f20905b8154815290600101906020018083116106f957829003601f168201915b5050505050815260200160028201805461072f906113e8565b80601f016020809104026020016040519081016040528092919081815260200182805461075b906113e8565b80156107a65780601f1061077d576101008083540402835291602001916107a6565b820191905f5260205f20905b81548152906001019060200180831161078957829003601f168201915b5050505050815260200160038201548152602001600482015f9054906101000a900460ff1615151515815250509050919050565b60025f9054906101000a900473ffffffffffffffffffffffffffffffffffffffff1673ffffffffffffffffffffffffffffffffffffffff163373ffffffffffffffffffffffffffffffffffffffff1614610869576040517f08c379a00000000000000000000000000000000000000000000000000000000081526004016108609061129b565b60405180910390fd5b5f8411801561087a57506001548411155b6108b9576040517f08c379a00000000000000000000000000000000000000000000000000000000081526004016108b090611810565b60405180910390fd5b5f805f8681526020019081526020015f209050838160010190816108dd91906115b5565b50828160020190816108ef91906115b5565b5081816004015f6101000a81548160ff0219169083151502179055505050505050565b60025f9054906101000a900473ffffffffffffffffffffffffffffffffffffffff1681565b60605f60015467ffffffffffffffff81111561095657610955610c03565b5b60405190808252806020026020018201604052801561098f57816020015b61097c610b4e565b8152602001906001900390816109745790505b5090505f600190505b6001548111610b46575f808281526020019081526020015f206040518060a00160405290815f82015481526020016001820180546109d5906113e8565b80601f0160208091040260200160405190810160405280929190818152602001828054610a01906113e8565b8015610a4c5780601f10610a2357610100808354040283529160200191610a4c565b820191905f5260205f20905b815481529060010190602001808311610a2f57829003601f168201915b50505050508152602001600282018054610a65906113e8565b80601f0160208091040260200160405190810160405280929190818152602001828054610a91906113e8565b8015610adc5780601f10610ab357610100808354040283529160200191610adc565b820191905f5260205f20905b815481529060010190602001808311610abf57829003601f168201915b5050505050815260200160038201548152602001600482015f9054906101000a900460ff16151515158152505082600183610b17919061182e565b81518110610b2857610b27611861565b5b60200260200101819052508080610b3e90611374565b915050610998565b508091505090565b6040518060a001604052805f815260200160608152602001606081526020015f81526020015f151581525090565b5f604051905090565b5f80fd5b5f80fd5b5f819050919050565b610b9f81610b8d565b8114610ba9575f80fd5b50565b5f81359050610bba81610b96565b92915050565b5f60208284031215610bd557610bd4610b85565b5b5f610be284828501610bac565b91505092915050565b5f80fd5b5f80fd5b5f601f19601f8301169050919050565b7f4e487b71000000000000000000000000000000000000000000000000000000005f52604160045260245ffd5b610c3982610bf3565b810181811067ffffffffffffffff82111715610c5857610c57610c03565b5b80604052505050565b5f610c6a610b7c565b9050610c768282610c30565b919050565b5f67ffffffffffffffff821115610c9557610c94610c03565b5b610c9e82610bf3565b9050602081019050919050565b828183375f83830152505050565b5f610ccb610cc684610c7b565b610c61565b905082815260208101848484011115610ce757610ce6610bef565b5b610cf2848285610cab565b509392505050565b5f82601f830112610d0e57610d0d610beb565b5b8135610d1e848260208601610cb9565b91505092915050565b5f8060408385031215610d3d57610d3c610b85565b5b5f83013567ffffffffffffffff811115610d5a57610d59610b89565b5b610d6685828601610cfa565b925050602083013567ffffffffffffffff811115610d8757610d86610b89565b5b610d9385828601610cfa565b9150509250929050565b610da681610b8d565b82525050565b5f602082019050610dbf5f830184610d9d565b92915050565b5f81519050919050565b5f82825260208201905092915050565b5f5b83811015610dfc578082015181840152602081019050610de1565b5f8484015250505050565b5f610e1182610dc5565b610e1b8185610dcf565b9350610e2b818560208601610ddf565b610e3481610bf3565b840191505092915050565b5f8115159050919050565b610e5381610e3f565b82525050565b5f60a082019050610e6c5f830188610d9d565b8181036020830152610e7e8187610e07565b90508181036040830152610e928186610e07565b9050610ea16060830185610d9d565b610eae6080830184610e4a565b9695505050505050565b610ec181610b8d565b82525050565b5f82825260208201905092915050565b5f610ee182610dc5565b610eeb8185610ec7565b9350610efb818560208601610ddf565b610f0481610bf3565b840191505092915050565b610f1881610e3f565b82525050565b5f60a083015f830151610f335f860182610eb8565b5060208301518482036020860152610f4b8282610ed7565b91505060408301518482036040860152610f658282610ed7565b9150506060830151610f7a6060860182610eb8565b506080830151610f8d6080860182610f0f565b508091505092915050565b5f6020820190508181035f830152610fb08184610f1e565b905092915050565b610fc181610e3f565b8114610fcb575f80fd5b50565b5f81359050610fdc81610fb8565b92915050565b5f805f8060808587031215610ffa57610ff9610b85565b5b5f61100787828801610bac565b945050602085013567ffffffffffffffff81111561102857611027610b89565b5b61103487828801610cfa565b935050604085013567ffffffffffffffff81111561105557611054610b89565b5b61106187828801610cfa565b925050606061107287828801610fce565b91505092959194509250565b5f73ffffffffffffffffffffffffffffffffffffffff82169050919050565b5f6110a78261107e565b9050919050565b6110b78161109d565b82525050565b5f6020820190506110d05f8301846110ae565b92915050565b5f81519050919050565b5f82825260208201905092915050565b5f819050602082019050919050565b5f60a083015f8301516111145f860182610eb8565b506020830151848203602086015261112c8282610ed7565b915050604083015184820360408601526111468282610ed7565b915050606083015161115b6060860182610eb8565b50608083015161116e6080860182610f0f565b508091505092915050565b5f61118483836110ff565b905092915050565b5f602082019050919050565b5f6111a2826110d6565b6111ac81856110e0565b9350836020820285016111be856110f0565b805f5b858110156111f957848403895281516111da8582611179565b94506111e58361118c565b925060208a019950506001810190506111c1565b50829750879550505050505092915050565b5f6020820190508181035f8301526112238184611198565b905092915050565b7f4f6e6c792041646d696e2063616e207065666f726d207468697320616374696f5f8201527f6e21000000000000000000000000000000000000000000000000000000000000602082015250565b5f611285602283610dcf565b91506112908261122b565b604082019050919050565b5f6020820190508181035f8301526112b281611279565b9050919050565b7f52656d6f76652066756e6374696f6e3a2043616e64696461746520646f6573205f8201527f6e6f742065786973742e00000000000000000000000000000000000000000000602082015250565b5f611313602a83610dcf565b915061131e826112b9565b604082019050919050565b5f6020820190508181035f83015261134081611307565b9050919050565b7f4e487b71000000000000000000000000000000000000000000000000000000005f52601160045260245ffd5b5f61137e82610b8d565b91507fffffffffffffffffffffffffffffffffffffffffffffffffffffffffffffffff82036113b0576113af611347565b5b600182019050919050565b7f4e487b71000000000000000000000000000000000000000000000000000000005f52602260045260245ffd5b5f60028204905060018216806113ff57607f821691505b602082108103611412576114116113bb565b5b50919050565b5f819050815f5260205f209050919050565b5f6020601f8301049050919050565b5f82821b905092915050565b5f600883026114747fffffffffffffffffffffffffffffffffffffffffffffffffffffffffffffffff82611439565b61147e8683611439565b95508019841693508086168417925050509392505050565b5f819050919050565b5f6114b96114b46114af84610b8d565b611496565b610b8d565b9050919050565b5f819050919050565b6114d28361149f565b6114e66114de826114c0565b848454611445565b825550505050565b5f90565b6114fa6114ee565b6115058184846114c9565b505050565b5b818110156115285761151d5f826114f2565b60018101905061150b565b5050565b601f82111561156d5761153e81611418565b6115478461142a565b81016020851015611556578190505b61156a6115628561142a565b83018261150a565b50505b505050565b5f82821c905092915050565b5f61158d5f1984600802611572565b1980831691505092915050565b5f6115a5838361157e565b9150826002028217905092915050565b6115be82610dc5565b67ffffffffffffffff8111156115d7576115d6610c03565b5b6115e182546113e8565b6115ec82828561152c565b5f60209050601f83116001811461161d575f841561160b578287015190505b611615858261159a565b86555061167c565b601f19841661162b86611418565b5f5b828110156116525784890151825560018201915060208501945060208101905061162d565b8683101561166f578489015161166b601f89168261157e565b8355505b6001600288020188555050505b505050505050565b7f5265636f72642066756e6374696f6e3a20496e76616c69642063616e646964615f8201527f7465210000000000000000000000000000000000000000000000000000000000602082015250565b5f6116de602383610dcf565b91506116e982611684565b604082019050919050565b5f6020820190508181035f83015261170b816116d2565b9050919050565b7f4765742046756e6374696f6e3a2043616e64696461746520646f6573206e6f745f8201527f2065786973742e00000000000000000000000000000000000000000000000000602082015250565b5f61176c602783610dcf565b915061177782611712565b604082019050919050565b5f6020820190508181035f83015261179981611760565b9050919050565b7f5570646174652046756e6374696f6e3a2043616e64696461746520646f6573205f8201527f6e6f742065786973742e00000000000000000000000000000000000000000000602082015250565b5f6117fa602a83610dcf565b9150611805826117a0565b604082019050919050565b5f6020820190508181035f830152611827816117ee565b9050919050565b5f61183882610b8d565b915061184383610b8d565b925082820390508181111561185b5761185a611347565b5b92915050565b7f4e487b71000000000000000000000000000000000000000000000000000000005f52603260045260245ffdfea2646970667358221220f66be20da22fea26779398c978a454386bdf5d75d2aeb342bc12171e0d40e7d164736f6c63430008170033",
  "immutableReferences": {},
  "source": "// SPDX-License-Identifier: MIT\r\n\r\npragma solidity ^0.8.0;\r\n\r\ncontract CandidateManagement {\r\n\r\n    // Candidate sctructure\r\n    struct Candidate { uint id; string name; string party; uint voteCount; bool isActive;}\r\n\r\n    //Mapping List of cadidates\r\n    mapping(uint => Candidate) public candidates;\r\n    uint public candidatesCount;\r\n\r\n    address public owner; //Access control modifier - restrict admin functions\r\n\r\n    modifier onlyOwner() {\r\n        require(msg.sender == owner, \"Only Admin can peform this action!\");\r\n        _;\r\n    }\r\n\r\n    constructor() {\r\n        owner = msg.sender;\r\n        candidatesCount = 0; \r\n    }\r\n\r\n    //Candidates function\r\n    //New cadidate\r\n    function addCandidate(string memory _name, string memory _party) public onlyOwner {\r\n        candidatesCount++; // Increase candidate count\r\n        candidates[candidatesCount] = Candidate({ id: candidatesCount, name: _name, party: _party, voteCount:0, isActive: true});\r\n    }\r\n\r\n    //Remove candidate\r\n    function removeCandidate(uint _candidateId) public onlyOwner {\r\n        require (_candidateId > 0 && _candidateId <= candidatesCount, \"Remove function: Candidate does not exist.\");\r\n        candidates[_candidateId].isActive= false;  //isActive flag error\r\n    }\r\n\r\n    //Get candidate (public)\r\n    function getCandidate(uint _candidateId) public view returns (Candidate memory){\r\n        require(_candidateId > 0 && _candidateId <= candidatesCount, \"Get Function: Candidate does not exist.\");\r\n        return candidates[_candidateId];\r\n    }\r\n\r\n    //Record a vote for a cadidate\r\n    function recordVote(uint _candidateId) public {\r\n        require(_candidateId > 0 && _candidateId <=  candidatesCount, \"Record function: Invalid candidate!\");\r\n        candidates[_candidateId].voteCount++; //Increse vote count - selected candidate\r\n    }\r\n\r\n    //Get number of votes of a candidate\r\n    function getCandidateCount() public view returns (uint){\r\n        return  candidatesCount;\r\n    }\r\n\r\n    //Extra functions\r\n    //Update Candidate information\r\n    function updateCandidate (\r\n        uint _candidateId, \r\n        string memory _newName,\r\n        string memory _newParty,\r\n        bool _newIsActive ) public onlyOwner {\r\n        require(_candidateId > 0 && _candidateId <= candidatesCount, \"Update Function: Candidate does not exist.\");\r\n        Candidate storage candidate = candidates[_candidateId];\r\n        candidate.name = _newName;\r\n        candidate.party = _newParty;\r\n        candidate.isActive = _newIsActive;\r\n    }\r\n\r\n    //List of all candidates\r\n    function listAllCandidates() public view returns (Candidate[] memory){\r\n        Candidate[] memory candidateList = new Candidate[](candidatesCount);\r\n        for  (uint i = 1; i <= candidatesCount; i++) {\r\n            candidateList[i - 1] = candidates[i];\r\n        }\r\n        return candidateList;\r\n    }\r\n}",
  "sourcePath": "F:\\CCT 3\\2 Dist. Digital Transactions\\CA1\\ChainVote\\contracts\\CandidateManagement.sol",
  "compiler": {
    "name": "solc",
    "version": "0.8.23+commit.f704f362.Emscripten.clang"
  },
  "schemaVersion": "3.4.16",
  "updatedAt": "2023-12-05T12:30:52.772Z",
  "devdoc": {
    "kind": "dev",
    "methods": {},
    "version": 1
  },
  "userdoc": {
    "kind": "user",
    "methods": {},
    "version": 1
  }
}