{
  "contractName": "Election",
  "abi": [
    {
      "inputs": [],
      "stateMutability": "nonpayable",
      "type": "constructor"
    },
    {
      "anonymous": false,
      "inputs": [
        {
          "indexed": false,
          "internalType": "string",
          "name": "electionName",
          "type": "string"
        },
        {
          "indexed": false,
          "internalType": "uint256",
          "name": "startTime",
          "type": "uint256"
        },
        {
          "indexed": false,
          "internalType": "uint256",
          "name": "endTime",
          "type": "uint256"
        }
      ],
      "name": "ElectionCreated",
      "type": "event"
    },
    {
      "anonymous": false,
      "inputs": [
        {
          "indexed": false,
          "internalType": "uint256[]",
          "name": "voteCounts",
          "type": "uint256[]"
        }
      ],
      "name": "ElectionFinalized",
      "type": "event"
    },
    {
      "anonymous": false,
      "inputs": [
        {
          "indexed": true,
          "internalType": "address",
          "name": "voter",
          "type": "address"
        },
        {
          "indexed": false,
          "internalType": "uint256",
          "name": "cadidateId",
          "type": "uint256"
        }
      ],
      "name": "Vote",
      "type": "event"
    },
    {
      "inputs": [],
      "name": "candidateManagement",
      "outputs": [
        {
          "internalType": "contract CandidateManagement",
          "name": "",
          "type": "address"
        }
      ],
      "stateMutability": "view",
      "type": "function"
    },
    {
      "inputs": [],
      "name": "electionDetails",
      "outputs": [
        {
          "internalType": "string",
          "name": "electionName",
          "type": "string"
        },
        {
          "internalType": "uint256",
          "name": "startTime",
          "type": "uint256"
        },
        {
          "internalType": "uint256",
          "name": "endTime",
          "type": "uint256"
        },
        {
          "internalType": "bool",
          "name": "finalized",
          "type": "bool"
        }
      ],
      "stateMutability": "view",
      "type": "function"
    },
    {
      "inputs": [
        {
          "internalType": "uint256",
          "name": "",
          "type": "uint256"
        }
      ],
      "name": "elections",
      "outputs": [
        {
          "internalType": "string",
          "name": "electionName",
          "type": "string"
        },
        {
          "internalType": "uint256",
          "name": "startTime",
          "type": "uint256"
        },
        {
          "internalType": "uint256",
          "name": "endTime",
          "type": "uint256"
        },
        {
          "internalType": "bool",
          "name": "finalized",
          "type": "bool"
        }
      ],
      "stateMutability": "view",
      "type": "function"
    },
    {
      "inputs": [],
      "name": "owner",
      "outputs": [
        {
          "internalType": "address",
          "name": "",
          "type": "address"
        }
      ],
      "stateMutability": "view",
      "type": "function"
    },
    {
      "inputs": [],
      "name": "voterRegistration",
      "outputs": [
        {
          "internalType": "contract VoterRegistration",
          "name": "",
          "type": "address"
        }
      ],
      "stateMutability": "view",
      "type": "function"
    },
    {
      "inputs": [
        {
          "internalType": "address",
          "name": "_voterRegistrationAddress",
          "type": "address"
        },
        {
          "internalType": "address",
          "name": "_candidateManagementAddress",
          "type": "address"
        }
      ],
      "name": "initialize",
      "outputs": [],
      "stateMutability": "nonpayable",
      "type": "function"
    },
    {
      "inputs": [
        {
          "internalType": "string",
          "name": "_electionName",
          "type": "string"
        },
        {
          "internalType": "uint256",
          "name": "_statTime",
          "type": "uint256"
        },
        {
          "internalType": "uint256",
          "name": "_endTime",
          "type": "uint256"
        }
      ],
      "name": "createElection",
      "outputs": [],
      "stateMutability": "nonpayable",
      "type": "function"
    },
    {
      "inputs": [
        {
          "internalType": "uint256",
          "name": "_candidateId",
          "type": "uint256"
        }
      ],
      "name": "vote",
      "outputs": [],
      "stateMutability": "nonpayable",
      "type": "function"
    },
    {
      "inputs": [],
      "name": "finalizeElection",
      "outputs": [],
      "stateMutability": "nonpayable",
      "type": "function"
    },
    {
      "inputs": [],
      "name": "getWinner",
      "outputs": [
        {
          "internalType": "uint256",
          "name": "",
          "type": "uint256"
        }
      ],
      "stateMutability": "view",
      "type": "function"
    },
    {
      "inputs": [],
      "name": "getResults",
      "outputs": [
        {
          "internalType": "uint256[]",
          "name": "",
          "type": "uint256[]"
        }
      ],
      "stateMutability": "view",
      "type": "function"
    }
  ],
  "bytecode": "0x608060405234801561000f575f80fd5b503360075f6101000a81548173ffffffffffffffffffffffffffffffffffffffff021916908373ffffffffffffffffffffffffffffffffffffffff1602179055506122408061005d5f395ff3fe608060405234801561000f575f80fd5b50600436106100a7575f3560e01c80636d2f69661161006f5780636d2f69661461013e5780636f6379e31461015f578063897929411461017d5780638da5cb5b1461019b5780638e7ea5b2146101b9578063f49a7a17146101d7576100a7565b80630121b93f146100ab5780634717f97c146100c7578063485cc955146100e55780635e6fef01146101015780636cc6837e14610134575b5f80fd5b6100c560048036038101906100c09190611221565b6101f3565b005b6100cf610521565b6040516100dc9190611303565b60405180910390f35b6100ff60048036038101906100fa919061137d565b610749565b005b61011b60048036038101906101169190611221565b610976565b60405161012b949392919061146e565b60405180910390f35b61013c610a33565b005b610146610d7a565b604051610156949392919061146e565b60405180910390f35b610167610e29565b6040516101749190611513565b60405180910390f35b610185610e4e565b604051610192919061154c565b60405180910390f35b6101a3610e73565b6040516101b09190611574565b60405180910390f35b6101c1610e98565b6040516101ce919061158d565b60405180910390f35b6101f160048036038101906101ec91906116d2565b611064565b005b600360010154421015801561020d57506003600201544211155b61024c576040517f08c379a000000000000000000000000000000000000000000000000000000000815260040161024390611788565b60405180910390fd5b60015f9054906101000a900473ffffffffffffffffffffffffffffffffffffffff1673ffffffffffffffffffffffffffffffffffffffff1663eb2119db336040518263ffffffff1660e01b81526004016102a69190611574565b602060405180830381865afa1580156102c1573d5f803e3d5ffd5b505050506040513d601f19601f820116820180604052508101906102e591906117d0565b610324576040517f08c379a000000000000000000000000000000000000000000000000000000000815260040161031b90611845565b60405180910390fd5b60015f9054906101000a900473ffffffffffffffffffffffffffffffffffffffff1673ffffffffffffffffffffffffffffffffffffffff166309eef43e336040518263ffffffff1660e01b815260040161037e9190611574565b602060405180830381865afa158015610399573d5f803e3d5ffd5b505050506040513d601f19601f820116820180604052508101906103bd91906117d0565b156103fd576040517f08c379a00000000000000000000000000000000000000000000000000000000081526004016103f4906118ad565b60405180910390fd5b60025f9054906101000a900473ffffffffffffffffffffffffffffffffffffffff1673ffffffffffffffffffffffffffffffffffffffff166327686c1d826040518263ffffffff1660e01b8152600401610457919061158d565b5f604051808303815f87803b15801561046e575f80fd5b505af1158015610480573d5f803e3d5ffd5b5050505060015f9054906101000a900473ffffffffffffffffffffffffffffffffffffffff1673ffffffffffffffffffffffffffffffffffffffff1663eb2119db336040518263ffffffff1660e01b81526004016104de9190611574565b602060405180830381865afa1580156104f9573d5f803e3d5ffd5b505050506040513d601f19601f8201168201806040525081019061051d91906117d0565b5050565b6060600380015f9054906101000a900460ff16610573576040517f08c379a000000000000000000000000000000000000000000000000000000000815260040161056a90611915565b60405180910390fd5b5f60025f9054906101000a900473ffffffffffffffffffffffffffffffffffffffff1673ffffffffffffffffffffffffffffffffffffffff166330a563476040518163ffffffff1660e01b8152600401602060405180830381865afa1580156105de573d5f803e3d5ffd5b505050506040513d601f19601f820116820180604052508101906106029190611947565b90505f8167ffffffffffffffff81111561061f5761061e6115ae565b5b60405190808252806020026020018201604052801561064d5781602001602082028036833780820191505090505b5090505f600190505b828111610740575f60025f9054906101000a900473ffffffffffffffffffffffffffffffffffffffff1673ffffffffffffffffffffffffffffffffffffffff166335b8e820836040518263ffffffff1660e01b81526004016106b8919061158d565b5f60405180830381865afa1580156106d2573d5f803e3d5ffd5b505050506040513d5f823e3d601f19601f820116820180604052508101906106fa9190611aa9565b905080606001518360018461070f9190611b1d565b815181106107205761071f611b50565b5b60200260200101818152505050808061073890611b7d565b915050610656565b50809250505090565b5f73ffffffffffffffffffffffffffffffffffffffff168273ffffffffffffffffffffffffffffffffffffffff16141580156107b157505f73ffffffffffffffffffffffffffffffffffffffff168173ffffffffffffffffffffffffffffffffffffffff1614155b6107f0576040517f08c379a00000000000000000000000000000000000000000000000000000000081526004016107e790611c0e565b60405180910390fd5b5f73ffffffffffffffffffffffffffffffffffffffff1660015f9054906101000a900473ffffffffffffffffffffffffffffffffffffffff1673ffffffffffffffffffffffffffffffffffffffff1614801561089857505f73ffffffffffffffffffffffffffffffffffffffff1660025f9054906101000a900473ffffffffffffffffffffffffffffffffffffffff1673ffffffffffffffffffffffffffffffffffffffff16145b6108d7576040517f08c379a00000000000000000000000000000000000000000000000000000000081526004016108ce90611c76565b60405180910390fd5b8160015f6101000a81548173ffffffffffffffffffffffffffffffffffffffff021916908373ffffffffffffffffffffffffffffffffffffffff1602179055508060025f6101000a81548173ffffffffffffffffffffffffffffffffffffffff021916908373ffffffffffffffffffffffffffffffffffffffff1602179055505f600380015f6101000a81548160ff0219169083151502179055505050565b5f602052805f5260405f205f91509050805f01805461099490611cc1565b80601f01602080910402602001604051908101604052809291908181526020018280546109c090611cc1565b8015610a0b5780601f106109e257610100808354040283529160200191610a0b565b820191905f5260205f20905b8154815290600101906020018083116109ee57829003601f168201915b505050505090806001015490806002015490806003015f9054906101000a900460ff16905084565b60075f9054906101000a900473ffffffffffffffffffffffffffffffffffffffff1673ffffffffffffffffffffffffffffffffffffffff163373ffffffffffffffffffffffffffffffffffffffff1614610ac2576040517f08c379a0000000000000000000000000000000000000000000000000000000008152600401610ab990611d61565b60405180910390fd5b6003600201544211610b09576040517f08c379a0000000000000000000000000000000000000000000000000000000008152600401610b0090611dc9565b60405180910390fd5b600380015f9054906101000a900460ff1615610b5a576040517f08c379a0000000000000000000000000000000000000000000000000000000008152600401610b5190611e57565b60405180910390fd5b5f60025f9054906101000a900473ffffffffffffffffffffffffffffffffffffffff1673ffffffffffffffffffffffffffffffffffffffff166330a563476040518163ffffffff1660e01b8152600401602060405180830381865afa158015610bc5573d5f803e3d5ffd5b505050506040513d601f19601f82011682018060405250810190610be99190611947565b90505f8167ffffffffffffffff811115610c0657610c056115ae565b5b604051908082528060200260200182016040528015610c345781602001602082028036833780820191505090505b5090505f600190505b82811015610d22575f60025f9054906101000a900473ffffffffffffffffffffffffffffffffffffffff1673ffffffffffffffffffffffffffffffffffffffff166335b8e820836040518263ffffffff1660e01b8152600401610ca0919061158d565b5f60405180830381865afa158015610cba573d5f803e3d5ffd5b505050506040513d5f823e3d601f19601f82011682018060405250810190610ce29190611aa9565b9050806060015183600184610cf79190611b1d565b81518110610d0857610d07611b50565b5b602002602001018181525050508080600101915050610c3d565b506001600380015f6101000a81548160ff0219169083151502179055507f91577393c5020df94c1e04501b8c9411f47174ef6e6e6b069a65285e9dc94b5e81604051610d6e9190611303565b60405180910390a15050565b6003805f018054610d8a90611cc1565b80601f0160208091040260200160405190810160405280929190818152602001828054610db690611cc1565b8015610e015780601f10610dd857610100808354040283529160200191610e01565b820191905f5260205f20905b815481529060010190602001808311610de457829003601f168201915b505050505090806001015490806002015490806003015f9054906101000a900460ff16905084565b60015f9054906101000a900473ffffffffffffffffffffffffffffffffffffffff1681565b60025f9054906101000a900473ffffffffffffffffffffffffffffffffffffffff1681565b60075f9054906101000a900473ffffffffffffffffffffffffffffffffffffffff1681565b5f600380015f9054906101000a900460ff16610ee9576040517f08c379a0000000000000000000000000000000000000000000000000000000008152600401610ee090611915565b60405180910390fd5b5f60025f9054906101000a900473ffffffffffffffffffffffffffffffffffffffff1673ffffffffffffffffffffffffffffffffffffffff166330a563476040518163ffffffff1660e01b8152600401602060405180830381865afa158015610f54573d5f803e3d5ffd5b505050506040513d601f19601f82011682018060405250810190610f789190611947565b90505f600190505f80600190505b83811161105a575f60025f9054906101000a900473ffffffffffffffffffffffffffffffffffffffff1673ffffffffffffffffffffffffffffffffffffffff166335b8e820836040518263ffffffff1660e01b8152600401610fe8919061158d565b5f60405180830381865afa158015611002573d5f803e3d5ffd5b505050506040513d5f823e3d601f19601f8201168201806040525081019061102a9190611aa9565b9050828160600151111561104657805f01519350806060015192505b50808061105290611b7d565b915050610f86565b5081935050505090565b60075f9054906101000a900473ffffffffffffffffffffffffffffffffffffffff1673ffffffffffffffffffffffffffffffffffffffff163373ffffffffffffffffffffffffffffffffffffffff16146110f3576040517f08c379a00000000000000000000000000000000000000000000000000000000081526004016110ea90611d61565b60405180910390fd5b808210611135576040517f08c379a000000000000000000000000000000000000000000000000000000000815260040161112c90611ee5565b60405180910390fd5b428111611177576040517f08c379a000000000000000000000000000000000000000000000000000000000815260040161116e90611f4d565b60405180910390fd5b8260035f01908161118891906120ff565b5081600360010181905550806003600201819055507f3192025d62576bbf32bcba53281e3aeec990aa639a799f5e1abaa5fc0b654f998383836040516111d0939291906121ce565b60405180910390a1505050565b5f604051905090565b5f80fd5b5f80fd5b5f819050919050565b611200816111ee565b811461120a575f80fd5b50565b5f8135905061121b816111f7565b92915050565b5f60208284031215611236576112356111e6565b5b5f6112438482850161120d565b91505092915050565b5f81519050919050565b5f82825260208201905092915050565b5f819050602082019050919050565b61127e816111ee565b82525050565b5f61128f8383611275565b60208301905092915050565b5f602082019050919050565b5f6112b18261124c565b6112bb8185611256565b93506112c683611266565b805f5b838110156112f65781516112dd8882611284565b97506112e88361129b565b9250506001810190506112c9565b5085935050505092915050565b5f6020820190508181035f83015261131b81846112a7565b905092915050565b5f73ffffffffffffffffffffffffffffffffffffffff82169050919050565b5f61134c82611323565b9050919050565b61135c81611342565b8114611366575f80fd5b50565b5f8135905061137781611353565b92915050565b5f8060408385031215611393576113926111e6565b5b5f6113a085828601611369565b92505060206113b185828601611369565b9150509250929050565b5f81519050919050565b5f82825260208201905092915050565b5f5b838110156113f25780820151818401526020810190506113d7565b5f8484015250505050565b5f601f19601f8301169050919050565b5f611417826113bb565b61142181856113c5565b93506114318185602086016113d5565b61143a816113fd565b840191505092915050565b61144e816111ee565b82525050565b5f8115159050919050565b61146881611454565b82525050565b5f6080820190508181035f830152611486818761140d565b90506114956020830186611445565b6114a26040830185611445565b6114af606083018461145f565b95945050505050565b5f819050919050565b5f6114db6114d66114d184611323565b6114b8565b611323565b9050919050565b5f6114ec826114c1565b9050919050565b5f6114fd826114e2565b9050919050565b61150d816114f3565b82525050565b5f6020820190506115265f830184611504565b92915050565b5f611536826114e2565b9050919050565b6115468161152c565b82525050565b5f60208201905061155f5f83018461153d565b92915050565b61156e81611342565b82525050565b5f6020820190506115875f830184611565565b92915050565b5f6020820190506115a05f830184611445565b92915050565b5f80fd5b5f80fd5b7f4e487b71000000000000000000000000000000000000000000000000000000005f52604160045260245ffd5b6115e4826113fd565b810181811067ffffffffffffffff82111715611603576116026115ae565b5b80604052505050565b5f6116156111dd565b905061162182826115db565b919050565b5f67ffffffffffffffff8211156116405761163f6115ae565b5b611649826113fd565b9050602081019050919050565b828183375f83830152505050565b5f61167661167184611626565b61160c565b905082815260208101848484011115611692576116916115aa565b5b61169d848285611656565b509392505050565b5f82601f8301126116b9576116b86115a6565b5b81356116c9848260208601611664565b91505092915050565b5f805f606084860312156116e9576116e86111e6565b5b5f84013567ffffffffffffffff811115611706576117056111ea565b5b611712868287016116a5565b93505060206117238682870161120d565b92505060406117348682870161120d565b9150509250925092565b7f456c656374696f6e206973204e4f54206163746976652e0000000000000000005f82015250565b5f6117726017836113c5565b915061177d8261173e565b602082019050919050565b5f6020820190508181035f83015261179f81611766565b9050919050565b6117af81611454565b81146117b9575f80fd5b50565b5f815190506117ca816117a6565b92915050565b5f602082840312156117e5576117e46111e6565b5b5f6117f2848285016117bc565b91505092915050565b7f566f746572206973206e6f7420726567697374657265642e00000000000000005f82015250565b5f61182f6018836113c5565b915061183a826117fb565b602082019050919050565b5f6020820190508181035f83015261185c81611823565b9050919050565b7f566f7465722068617320616c726561647920766f7465642e00000000000000005f82015250565b5f6118976018836113c5565b91506118a282611863565b602082019050919050565b5f6020820190508181035f8301526118c48161188b565b9050919050565b7f456c656374696f6e20686173206e6f74206265656e2066696e616c697a65642e5f82015250565b5f6118ff6020836113c5565b915061190a826118cb565b602082019050919050565b5f6020820190508181035f83015261192c816118f3565b9050919050565b5f81519050611941816111f7565b92915050565b5f6020828403121561195c5761195b6111e6565b5b5f61196984828501611933565b91505092915050565b5f80fd5b5f80fd5b5f61198c61198784611626565b61160c565b9050828152602081018484840111156119a8576119a76115aa565b5b6119b38482856113d5565b509392505050565b5f82601f8301126119cf576119ce6115a6565b5b81516119df84826020860161197a565b91505092915050565b5f60a082840312156119fd576119fc611972565b5b611a0760a061160c565b90505f611a1684828501611933565b5f83015250602082015167ffffffffffffffff811115611a3957611a38611976565b5b611a45848285016119bb565b602083015250604082015167ffffffffffffffff811115611a6957611a68611976565b5b611a75848285016119bb565b6040830152506060611a8984828501611933565b6060830152506080611a9d848285016117bc565b60808301525092915050565b5f60208284031215611abe57611abd6111e6565b5b5f82015167ffffffffffffffff811115611adb57611ada6111ea565b5b611ae7848285016119e8565b91505092915050565b7f4e487b71000000000000000000000000000000000000000000000000000000005f52601160045260245ffd5b5f611b27826111ee565b9150611b32836111ee565b9250828203905081811115611b4a57611b49611af0565b5b92915050565b7f4e487b71000000000000000000000000000000000000000000000000000000005f52603260045260245ffd5b5f611b87826111ee565b91507fffffffffffffffffffffffffffffffffffffffffffffffffffffffffffffffff8203611bb957611bb8611af0565b5b600182019050919050565b7f496e76616c696420416464726573732e000000000000000000000000000000005f82015250565b5f611bf86010836113c5565b9150611c0382611bc4565b602082019050919050565b5f6020820190508181035f830152611c2581611bec565b9050919050565b7f436f6e747261637420616c726561647920696e697469616c697a65642e0000005f82015250565b5f611c60601d836113c5565b9150611c6b82611c2c565b602082019050919050565b5f6020820190508181035f830152611c8d81611c54565b9050919050565b7f4e487b71000000000000000000000000000000000000000000000000000000005f52602260045260245ffd5b5f6002820490506001821680611cd857607f821691505b602082108103611ceb57611cea611c94565b5b50919050565b7f4f6e6c792041646d696e2063616e207065666f726d207468697320616374696f5f8201527f6e21000000000000000000000000000000000000000000000000000000000000602082015250565b5f611d4b6022836113c5565b9150611d5682611cf1565b604082019050919050565b5f6020820190508181035f830152611d7881611d3f565b9050919050565b7f456c656374696f6e206973205354494c4c206163746976652e000000000000005f82015250565b5f611db36019836113c5565b9150611dbe82611d7f565b602082019050919050565b5f6020820190508181035f830152611de081611da7565b9050919050565b7f456c656374696f6e2068617320616c7265616479206265656e2066696e616c695f8201527f7a65642e00000000000000000000000000000000000000000000000000000000602082015250565b5f611e416024836113c5565b9150611e4c82611de7565b604082019050919050565b5f6020820190508181035f830152611e6e81611e35565b9050919050565b7f53746172742074696d65206d757374206265206265666f726520656e642074695f8201527f6d652e0000000000000000000000000000000000000000000000000000000000602082015250565b5f611ecf6023836113c5565b9150611eda82611e75565b604082019050919050565b5f6020820190508181035f830152611efc81611ec3565b9050919050565b7f456e642074696d65206d75737420626520696e207468652066757475726500005f82015250565b5f611f37601e836113c5565b9150611f4282611f03565b602082019050919050565b5f6020820190508181035f830152611f6481611f2b565b9050919050565b5f819050815f5260205f209050919050565b5f6020601f8301049050919050565b5f82821b905092915050565b5f60088302611fc77fffffffffffffffffffffffffffffffffffffffffffffffffffffffffffffffff82611f8c565b611fd18683611f8c565b95508019841693508086168417925050509392505050565b5f612003611ffe611ff9846111ee565b6114b8565b6111ee565b9050919050565b5f819050919050565b61201c83611fe9565b6120306120288261200a565b848454611f98565b825550505050565b5f90565b612044612038565b61204f818484612013565b505050565b5b81811015612072576120675f8261203c565b600181019050612055565b5050565b601f8211156120b75761208881611f6b565b61209184611f7d565b810160208510156120a0578190505b6120b46120ac85611f7d565b830182612054565b50505b505050565b5f82821c905092915050565b5f6120d75f19846008026120bc565b1980831691505092915050565b5f6120ef83836120c8565b9150826002028217905092915050565b612108826113bb565b67ffffffffffffffff811115612121576121206115ae565b5b61212b8254611cc1565b612136828285612076565b5f60209050601f831160018114612167575f8415612155578287015190505b61215f85826120e4565b8655506121c6565b601f19841661217586611f6b565b5f5b8281101561219c57848901518255600182019150602085019450602081019050612177565b868310156121b957848901516121b5601f8916826120c8565b8355505b6001600288020188555050505b505050505050565b5f6060820190508181035f8301526121e6818661140d565b90506121f56020830185611445565b6122026040830184611445565b94935050505056fea2646970667358221220db7bc5a20fd4f65a170fcd25bffd2e2336402a095e3c85749738fc42e0a3f83564736f6c63430008170033",
  "immutableReferences": {},
  "source": "// SPDX-License-Identifier: MIT\npragma solidity ^0.8.0;\n\nimport \"./VoterRegistration.sol\";\nimport \"./CandidateManagement.sol\";\n\ncontract Election {\n    struct ElectionDetails { string electionName; uint256 startTime; uint256 endTime; bool finalized;}\n\n    mapping(uint256 => ElectionDetails) public elections;\n\n    VoterRegistration public voterRegistration;\n    CandidateManagement public candidateManagement;\n    ElectionDetails public electionDetails;\n\n    //Events\n    //msg when a new election is created and provides the details\n    event ElectionCreated( string electionName, uint256 startTime, uint256 endTime); \n    event Vote(address indexed voter, uint256 cadidateId); //when vote is casted sends a msg with voter details\n    event ElectionFinalized(uint256[] voteCounts); //msg when the election is over and the final votes count\n    \n    //Modifiers\n    //Access control modifier: ensure only owner can call the function\n    address public owner; \n    modifier onlyOwner() { \n        require(msg.sender == owner, \"Only Admin can peform this action!\"); \n    _; \n    }\n\n    constructor() {owner = msg.sender;}\n\n    //Restrictions:\n    //Checks if the current time is in the election's start and end timeframe.\n    modifier duringElection() {\n        require(block.timestamp >= electionDetails.startTime && block.timestamp <= electionDetails.endTime,\"Election is NOT active.\");\n        _;\n    }\n    //Checks if the current time is after the election's end time.\n    modifier afterElection() {\n        require(block.timestamp > electionDetails.endTime, \"Election is STILL active.\");\n        _;\n    }\n\n    //Functions\n    //Use initialize instead of constructors (cost related)\n    function initialize(address _voterRegistrationAddress,address _candidateManagementAddress) public {\n        require(_voterRegistrationAddress != address(0) &&\n                _candidateManagementAddress != address(0),\"Invalid Address.\");\n        require(address(voterRegistration) == address(0) &&\n                address(candidateManagement) == address(0),\"Contract already initialized.\");\n\n        voterRegistration = VoterRegistration(_voterRegistrationAddress);\n        candidateManagement = CandidateManagement(_candidateManagementAddress);\n        electionDetails.finalized = false;\n    }\n\n    //Configuration of the new election (name, star and end time)\n    function createElection(\n        string memory _electionName,\n        uint256 _statTime,\n        uint256 _endTime\n    ) public onlyOwner {\n        require(_statTime < _endTime, \"Start time must be before end time.\");\n        require(_endTime > block.timestamp, \"End time must be in the future\");\n\n        electionDetails.electionName = _electionName;\n        electionDetails.startTime = _statTime;\n        electionDetails.endTime = _endTime;\n\n        emit ElectionCreated(_electionName, _statTime, _endTime); //Emit\n    }\n\n    //To handle the voting process (registered voter during active election)\n    function vote(uint256 _candidateId) public duringElection {\n        require(voterRegistration.isVoterRegistered(msg.sender),\"Voter is not registered.\");\n        require(!voterRegistration.hasVoted(msg.sender),\"Voter has already voted.\");\n\n        candidateManagement.recordVote(_candidateId); //Record the vote in CandidateManagment contract\n        voterRegistration.isVoterRegistered(msg.sender); //Mark the  voter as hasVoted=true in VoterRegistration\n    }\n\n    //To finish the election and after tally votes\n    function finalizeElection() public onlyOwner afterElection {\n        require(!electionDetails.finalized, \"Election has already been finalized.\");\n        uint256 candidatesCount = candidateManagement.getCandidateCount();\n        uint256[] memory voteCounts = new uint256[](candidatesCount);\n\n    //Get the vote count for each candidate\n        for (uint256 i = 1; i < candidatesCount; i++) {\n            CandidateManagement.Candidate memory candidate = candidateManagement.getCandidate(i);\n            voteCounts[i - 1] = candidate.voteCount;\n        }\n        electionDetails.finalized = true;\n        emit ElectionFinalized(voteCounts);\n}\n\n    //Returns the winner's ID\n    //Only callable after the election has been finalized\n    function getWinner() public view returns (uint256) {\n        require(electionDetails.finalized, \"Election has not been finalized.\");\n\n        uint256 candidatesCount = candidateManagement.getCandidateCount();\n        uint256 winnerId = 1;\n        uint256 winnerVoteCount = 0;\n\n        //Loop through all candidates to find the winner\n        for (uint256 i = 1; i <= candidatesCount; i++) {\n            CandidateManagement.Candidate memory candidate = candidateManagement\n                .getCandidate(i);\n            if (candidate.voteCount > winnerVoteCount) {\n                winnerId = candidate.id;\n                winnerVoteCount = candidate.voteCount;\n            }\n        }\n        return winnerId;\n    }\n\n    // Returns an array of vote counts for each candidate\n    // Only callable after the election has been finalized\n    function getResults() public view returns (uint256[] memory) {\n        require(electionDetails.finalized, \"Election has not been finalized.\");\n\n    uint256 candidatesCount = candidateManagement.getCandidateCount();\n    uint256[] memory voteCounts = new uint256[](candidatesCount);\n\n    // Loop through all candidates to get the vote counts\n    for (uint256 i = 1; i <= candidatesCount; i++) {\n        CandidateManagement.Candidate memory candidate = candidateManagement.getCandidate(i);\n        voteCounts[i - 1] = candidate.voteCount;\n    }\n\n    return voteCounts;\n    }\n}",
  "sourcePath": "F:\\CCT 3\\2 Dist. Digital Transactions\\CA1\\ChainVote\\contracts\\Election.sol",
  "compiler": {
    "name": "solc",
    "version": "0.8.23+commit.f704f362.Emscripten.clang"
  },
  "schemaVersion": "3.4.16",
  "updatedAt": "2023-12-05T12:30:52.788Z",
  "devdoc": {
    "kind": "dev",
    "methods": {},
    "version": 1
  },
  "userdoc": {
    "kind": "user",
    "methods": {},
    "version": 1
  }
}