{
  "contractName": "VoterRegistration",
  "abi": [
    {
      "anonymous": false,
      "inputs": [
        {
          "indexed": true,
          "internalType": "address",
          "name": "votersAddresses",
          "type": "address"
        },
        {
          "indexed": false,
          "internalType": "uint256",
          "name": "voterId",
          "type": "uint256"
        },
        {
          "indexed": false,
          "internalType": "string",
          "name": "name",
          "type": "string"
        },
        {
          "indexed": false,
          "internalType": "uint256",
          "name": "age",
          "type": "uint256"
        },
        {
          "indexed": false,
          "internalType": "bool",
          "name": "isEligible",
          "type": "bool"
        }
      ],
      "name": "VoterRegistered",
      "type": "event"
    },
    {
      "inputs": [
        {
          "internalType": "address",
          "name": "",
          "type": "address"
        }
      ],
      "name": "voters",
      "outputs": [
        {
          "internalType": "uint256",
          "name": "id",
          "type": "uint256"
        },
        {
          "internalType": "string",
          "name": "name",
          "type": "string"
        },
        {
          "internalType": "uint256",
          "name": "age",
          "type": "uint256"
        },
        {
          "internalType": "bool",
          "name": "isEligible",
          "type": "bool"
        },
        {
          "internalType": "bool",
          "name": "hasVoted",
          "type": "bool"
        }
      ],
      "stateMutability": "view",
      "type": "function"
    },
    {
      "inputs": [
        {
          "internalType": "uint256",
          "name": "",
          "type": "uint256"
        }
      ],
      "name": "votersAddresses",
      "outputs": [
        {
          "internalType": "address",
          "name": "",
          "type": "address"
        }
      ],
      "stateMutability": "view",
      "type": "function"
    },
    {
      "inputs": [
        {
          "internalType": "string",
          "name": "_name",
          "type": "string"
        },
        {
          "internalType": "uint256",
          "name": "_age",
          "type": "uint256"
        },
        {
          "internalType": "bool",
          "name": "_isEligible",
          "type": "bool"
        },
        {
          "internalType": "bool",
          "name": "_hasVoted",
          "type": "bool"
        }
      ],
      "name": "registerVoter",
      "outputs": [],
      "stateMutability": "nonpayable",
      "type": "function"
    },
    {
      "inputs": [],
      "name": "getVotersCount",
      "outputs": [
        {
          "internalType": "uint256",
          "name": "",
          "type": "uint256"
        }
      ],
      "stateMutability": "view",
      "type": "function"
    },
    {
      "inputs": [
        {
          "internalType": "address",
          "name": "_votersAddresses",
          "type": "address"
        }
      ],
      "name": "isVoterRegistered",
      "outputs": [
        {
          "internalType": "bool",
          "name": "",
          "type": "bool"
        }
      ],
      "stateMutability": "view",
      "type": "function"
    },
    {
      "inputs": [
        {
          "internalType": "address",
          "name": "_voterAddress",
          "type": "address"
        }
      ],
      "name": "hasVoted",
      "outputs": [
        {
          "internalType": "bool",
          "name": "",
          "type": "bool"
        }
      ],
      "stateMutability": "view",
      "type": "function"
    }
  ],
  "bytecode": "0x608060405234801561000f575f80fd5b50610e548061001d5f395ff3fe608060405234801561000f575f80fd5b5060043610610060575f3560e01c806309eef43e146100645780631af10679146100945780639a5667c0146100c4578063a3ec138d146100e0578063c0f2a77714610114578063eb2119db14610132575b5f80fd5b61007e600480360381019061007991906105f1565b610162565b60405161008b9190610636565b60405180910390f35b6100ae60048036038101906100a99190610682565b6101b7565b6040516100bb91906106bc565b60405180910390f35b6100de60048036038101906100d9919061083b565b6101f2565b005b6100fa60048036038101906100f591906105f1565b610456565b60405161010b959493929190610944565b60405180910390f35b61011c610526565b604051610129919061099c565b60405180910390f35b61014c600480360381019061014791906105f1565b610532565b6040516101599190610636565b60405180910390f35b5f805f8373ffffffffffffffffffffffffffffffffffffffff1673ffffffffffffffffffffffffffffffffffffffff1681526020019081526020015f2060030160019054906101000a900460ff169050919050565b600181815481106101c6575f80fd5b905f5260205f20015f915054906101000a900473ffffffffffffffffffffffffffffffffffffffff1681565b6012831015610236576040517f08c379a000000000000000000000000000000000000000000000000000000000815260040161022d906109ff565b60405180910390fd5b5f805f3373ffffffffffffffffffffffffffffffffffffffff1673ffffffffffffffffffffffffffffffffffffffff1681526020019081526020015f205f0154146102b6576040517f08c379a00000000000000000000000000000000000000000000000000000000081526004016102ad90610a8d565b60405180910390fd5b6040518060a00160405280600180805490506102d29190610ad8565b815260200185815260200184815260200183151581526020018215158152505f803373ffffffffffffffffffffffffffffffffffffffff1673ffffffffffffffffffffffffffffffffffffffff1681526020019081526020015f205f820151815f0155602082015181600101908161034a9190610d05565b50604082015181600201556060820151816003015f6101000a81548160ff02191690831515021790555060808201518160030160016101000a81548160ff021916908315150217905550905050600133908060018154018082558091505060019003905f5260205f20015f9091909190916101000a81548173ffffffffffffffffffffffffffffffffffffffff021916908373ffffffffffffffffffffffffffffffffffffffff1602179055503373ffffffffffffffffffffffffffffffffffffffff167f79164e44198af99515decde335a96f72098812d074107146c4cc453967a719a66001805490508686866040516104489493929190610dd4565b60405180910390a250505050565b5f602052805f5260405f205f91509050805f01549080600101805461047a90610b38565b80601f01602080910402602001604051908101604052809291908181526020018280546104a690610b38565b80156104f15780601f106104c8576101008083540402835291602001916104f1565b820191905f5260205f20905b8154815290600101906020018083116104d457829003601f168201915b505050505090806002015490806003015f9054906101000a900460ff16908060030160019054906101000a900460ff16905085565b5f600180549050905090565b5f805f8373ffffffffffffffffffffffffffffffffffffffff1673ffffffffffffffffffffffffffffffffffffffff1681526020019081526020015f206003015f9054906101000a900460ff169050919050565b5f604051905090565b5f80fd5b5f80fd5b5f73ffffffffffffffffffffffffffffffffffffffff82169050919050565b5f6105c082610597565b9050919050565b6105d0816105b6565b81146105da575f80fd5b50565b5f813590506105eb816105c7565b92915050565b5f602082840312156106065761060561058f565b5b5f610613848285016105dd565b91505092915050565b5f8115159050919050565b6106308161061c565b82525050565b5f6020820190506106495f830184610627565b92915050565b5f819050919050565b6106618161064f565b811461066b575f80fd5b50565b5f8135905061067c81610658565b92915050565b5f602082840312156106975761069661058f565b5b5f6106a48482850161066e565b91505092915050565b6106b6816105b6565b82525050565b5f6020820190506106cf5f8301846106ad565b92915050565b5f80fd5b5f80fd5b5f601f19601f8301169050919050565b7f4e487b71000000000000000000000000000000000000000000000000000000005f52604160045260245ffd5b610723826106dd565b810181811067ffffffffffffffff82111715610742576107416106ed565b5b80604052505050565b5f610754610586565b9050610760828261071a565b919050565b5f67ffffffffffffffff82111561077f5761077e6106ed565b5b610788826106dd565b9050602081019050919050565b828183375f83830152505050565b5f6107b56107b084610765565b61074b565b9050828152602081018484840111156107d1576107d06106d9565b5b6107dc848285610795565b509392505050565b5f82601f8301126107f8576107f76106d5565b5b81356108088482602086016107a3565b91505092915050565b61081a8161061c565b8114610824575f80fd5b50565b5f8135905061083581610811565b92915050565b5f805f80608085870312156108535761085261058f565b5b5f85013567ffffffffffffffff8111156108705761086f610593565b5b61087c878288016107e4565b945050602061088d8782880161066e565b935050604061089e87828801610827565b92505060606108af87828801610827565b91505092959194509250565b6108c48161064f565b82525050565b5f81519050919050565b5f82825260208201905092915050565b5f5b838110156109015780820151818401526020810190506108e6565b5f8484015250505050565b5f610916826108ca565b61092081856108d4565b93506109308185602086016108e4565b610939816106dd565b840191505092915050565b5f60a0820190506109575f8301886108bb565b8181036020830152610969818761090c565b905061097860408301866108bb565b6109856060830185610627565b6109926080830184610627565b9695505050505050565b5f6020820190506109af5f8301846108bb565b92915050565b7f416765206d7573742062652067726561746572207468616e20313800000000005f82015250565b5f6109e9601b836108d4565b91506109f4826109b5565b602082019050919050565b5f6020820190508181035f830152610a16816109dd565b9050919050565b7f566f74657220776974682074686973206164647265737320616c7265616479205f8201527f6578697374730000000000000000000000000000000000000000000000000000602082015250565b5f610a776026836108d4565b9150610a8282610a1d565b604082019050919050565b5f6020820190508181035f830152610aa481610a6b565b9050919050565b7f4e487b71000000000000000000000000000000000000000000000000000000005f52601160045260245ffd5b5f610ae28261064f565b9150610aed8361064f565b9250828201905080821115610b0557610b04610aab565b5b92915050565b7f4e487b71000000000000000000000000000000000000000000000000000000005f52602260045260245ffd5b5f6002820490506001821680610b4f57607f821691505b602082108103610b6257610b61610b0b565b5b50919050565b5f819050815f5260205f209050919050565b5f6020601f8301049050919050565b5f82821b905092915050565b5f60088302610bc47fffffffffffffffffffffffffffffffffffffffffffffffffffffffffffffffff82610b89565b610bce8683610b89565b95508019841693508086168417925050509392505050565b5f819050919050565b5f610c09610c04610bff8461064f565b610be6565b61064f565b9050919050565b5f819050919050565b610c2283610bef565b610c36610c2e82610c10565b848454610b95565b825550505050565b5f90565b610c4a610c3e565b610c55818484610c19565b505050565b5b81811015610c7857610c6d5f82610c42565b600181019050610c5b565b5050565b601f821115610cbd57610c8e81610b68565b610c9784610b7a565b81016020851015610ca6578190505b610cba610cb285610b7a565b830182610c5a565b50505b505050565b5f82821c905092915050565b5f610cdd5f1984600802610cc2565b1980831691505092915050565b5f610cf58383610cce565b9150826002028217905092915050565b610d0e826108ca565b67ffffffffffffffff811115610d2757610d266106ed565b5b610d318254610b38565b610d3c828285610c7c565b5f60209050601f831160018114610d6d575f8415610d5b578287015190505b610d658582610cea565b865550610dcc565b601f198416610d7b86610b68565b5f5b82811015610da257848901518255600182019150602085019450602081019050610d7d565b86831015610dbf5784890151610dbb601f891682610cce565b8355505b6001600288020188555050505b505050505050565b5f608082019050610de75f8301876108bb565b8181036020830152610df9818661090c565b9050610e0860408301856108bb565b610e156060830184610627565b9594505050505056fea26469706673582212204b77d0fa5d907f4bd020a17c236c54f5d20f1064441033a6de6b86cd54ffc11364736f6c63430008170033",
  "immutableReferences": {},
  "source": "// SPDX-License-Identifier: MIT\r\n\r\npragma solidity ^0.8.0;\r\n\r\ncontract VoterRegistration {\r\n    //Information about each voter\r\n    struct Voter { uint256 id; string name; uint256 age; bool isEligible; bool hasVoted; }\r\n\r\n    //Associating voter addresses with Voter data\r\n    mapping(address => Voter) public voters;\r\n    address[] public votersAddresses;\r\n\r\n    //Event to emit when a new voter is registered\r\n    event VoterRegistered(address indexed votersAddresses, uint256 voterId, string name, uint256 age, bool isEligible);\r\n\r\n    function registerVoter(\r\n        string memory _name,  uint256 _age, bool _isEligible, bool _hasVoted) public {\r\n        require(_age >= 18, \"Age must be greater than 18\");\r\n        require(voters[msg.sender].id == 0, \"Voter with this address already exists\");\r\n        voters[msg.sender] = Voter(votersAddresses.length + 1, _name, _age, _isEligible, _hasVoted);\r\n        votersAddresses.push(msg.sender);\r\n\r\n        //Emit the event after the voter has been added\r\n        emit VoterRegistered(msg.sender, votersAddresses.length, _name, _age, _isEligible);\r\n    }\r\n\r\n    function getVotersCount() public view returns (uint256) {\r\n        return votersAddresses.length;\r\n    }\r\n\r\n    //Checking eligibility\r\n    function isVoterRegistered(address _votersAddresses) public view returns (bool) {\r\n        return voters[_votersAddresses].isEligible;\r\n    }\r\n\r\n    //Checking if has voted\r\n    function hasVoted(address _voterAddress) public view returns (bool) {\r\n        return voters[_voterAddress].hasVoted;\r\n    }\r\n}",
  "sourcePath": "F:\\CCT 3\\2 Dist. Digital Transactions\\CA1\\ChainVote\\contracts\\VoterRegistration.sol",
  "compiler": {
    "name": "solc",
    "version": "0.8.23+commit.f704f362.Emscripten.clang"
  },
  "schemaVersion": "3.4.16",
  "updatedAt": "2023-12-05T12:30:52.807Z",
  "devdoc": {
    "kind": "dev",
    "methods": {},
    "version": 1
  },
  "userdoc": {
    "kind": "user",
    "methods": {},
    "version": 1
  }
}