{
  "contractName": "Voting",
  "abi": [
    {
      "anonymous": false,
      "inputs": [
        {
          "indexed": false,
          "internalType": "address",
          "name": "voter",
          "type": "address"
        },
        {
          "indexed": false,
          "internalType": "uint256",
          "name": "candidateId",
          "type": "uint256"
        }
      ],
      "name": "VoteCast",
      "type": "event"
    },
    {
      "inputs": [
        {
          "internalType": "address",
          "name": "",
          "type": "address"
        }
      ],
      "name": "hasVoted",
      "outputs": [
        {
          "internalType": "bool",
          "name": "",
          "type": "bool"
        }
      ],
      "stateMutability": "view",
      "type": "function"
    },
    {
      "inputs": [
        {
          "internalType": "address",
          "name": "_voterRegistrationAddress",
          "type": "address"
        },
        {
          "internalType": "address",
          "name": "_candidateManagementAddress",
          "type": "address"
        }
      ],
      "name": "initialize",
      "outputs": [],
      "stateMutability": "nonpayable",
      "type": "function"
    },
    {
      "inputs": [
        {
          "internalType": "uint256",
          "name": "_candidateId",
          "type": "uint256"
        }
      ],
      "name": "vote",
      "outputs": [],
      "stateMutability": "nonpayable",
      "type": "function"
    }
  ],
  "bytecode": "0x608060405234801561000f575f80fd5b506109018061001d5f395ff3fe608060405234801561000f575f80fd5b506004361061003f575f3560e01c80630121b93f1461004357806309eef43e1461005f578063485cc9551461008f575b5f80fd5b61005d6004803603810190610058919061052e565b6100ab565b005b610079600480360381019061007491906105b3565b6103b0565b60405161008691906105f8565b60405180910390f35b6100a960048036038101906100a49190610611565b6103cd565b005b5f73ffffffffffffffffffffffffffffffffffffffff165f8054906101000a900473ffffffffffffffffffffffffffffffffffffffff1673ffffffffffffffffffffffffffffffffffffffff1603610138576040517f08c379a000000000000000000000000000000000000000000000000000000000815260040161012f906106a9565b60405180910390fd5b5f8054906101000a900473ffffffffffffffffffffffffffffffffffffffff1673ffffffffffffffffffffffffffffffffffffffff1663eb2119db336040518263ffffffff1660e01b815260040161019091906106d6565b602060405180830381865afa1580156101ab573d5f803e3d5ffd5b505050506040513d601f19601f820116820180604052508101906101cf9190610719565b61020e576040517f08c379a00000000000000000000000000000000000000000000000000000000081526004016102059061078e565b60405180910390fd5b60025f3373ffffffffffffffffffffffffffffffffffffffff1673ffffffffffffffffffffffffffffffffffffffff1681526020019081526020015f205f9054906101000a900460ff1615610298576040517f08c379a000000000000000000000000000000000000000000000000000000000815260040161028f906107f6565b60405180910390fd5b600160025f3373ffffffffffffffffffffffffffffffffffffffff1673ffffffffffffffffffffffffffffffffffffffff1681526020019081526020015f205f6101000a81548160ff02191690831515021790555060015f9054906101000a900473ffffffffffffffffffffffffffffffffffffffff1673ffffffffffffffffffffffffffffffffffffffff166327686c1d826040518263ffffffff1660e01b81526004016103479190610823565b5f604051808303815f87803b15801561035e575f80fd5b505af1158015610370573d5f803e3d5ffd5b505050507fa36cc2bebb74db33e9f88110a07ef56e1b31b24b4c4f51b54b1664266e29f45b33826040516103a592919061083c565b60405180910390a150565b6002602052805f5260405f205f915054906101000a900460ff1681565b5f73ffffffffffffffffffffffffffffffffffffffff168273ffffffffffffffffffffffffffffffffffffffff161415801561043557505f73ffffffffffffffffffffffffffffffffffffffff168173ffffffffffffffffffffffffffffffffffffffff1614155b610474576040517f08c379a000000000000000000000000000000000000000000000000000000000815260040161046b906108ad565b60405180910390fd5b815f806101000a81548173ffffffffffffffffffffffffffffffffffffffff021916908373ffffffffffffffffffffffffffffffffffffffff1602179055508060015f6101000a81548173ffffffffffffffffffffffffffffffffffffffff021916908373ffffffffffffffffffffffffffffffffffffffff1602179055505050565b5f80fd5b5f819050919050565b61050d816104fb565b8114610517575f80fd5b50565b5f8135905061052881610504565b92915050565b5f60208284031215610543576105426104f7565b5b5f6105508482850161051a565b91505092915050565b5f73ffffffffffffffffffffffffffffffffffffffff82169050919050565b5f61058282610559565b9050919050565b61059281610578565b811461059c575f80fd5b50565b5f813590506105ad81610589565b92915050565b5f602082840312156105c8576105c76104f7565b5b5f6105d58482850161059f565b91505092915050565b5f8115159050919050565b6105f2816105de565b82525050565b5f60208201905061060b5f8301846105e9565b92915050565b5f8060408385031215610627576106266104f7565b5b5f6106348582860161059f565b92505060206106458582860161059f565b9150509250929050565b5f82825260208201905092915050565b7f436f6e747261637420616c726561647920696e697469616c697a65642e0000005f82015250565b5f610693601d8361064f565b915061069e8261065f565b602082019050919050565b5f6020820190508181035f8301526106c081610687565b9050919050565b6106d081610578565b82525050565b5f6020820190506106e95f8301846106c7565b92915050565b6106f8816105de565b8114610702575f80fd5b50565b5f81519050610713816106ef565b92915050565b5f6020828403121561072e5761072d6104f7565b5b5f61073b84828501610705565b91505092915050565b7f566f746572206973206e6f7420726567697374657265642e00000000000000005f82015250565b5f61077860188361064f565b915061078382610744565b602082019050919050565b5f6020820190508181035f8301526107a58161076c565b9050919050565b7f566f7465722068617320616c726561647920766f7465642e00000000000000005f82015250565b5f6107e060188361064f565b91506107eb826107ac565b602082019050919050565b5f6020820190508181035f83015261080d816107d4565b9050919050565b61081d816104fb565b82525050565b5f6020820190506108365f830184610814565b92915050565b5f60408201905061084f5f8301856106c7565b61085c6020830184610814565b9392505050565b7f436f6e7472616374206164647265737365732063616e6e6f7420626520302e005f82015250565b5f610897601f8361064f565b91506108a282610863565b602082019050919050565b5f6020820190508181035f8301526108c48161088b565b905091905056fea26469706673582212202d8f8d4db4ef4c119a14e3e81bff656b8b33b29f2c76459f1c21cb8f6cc4ecac64736f6c63430008170033",
  "immutableReferences": {},
  "source": "// SPDX-License-Identifier: MIT\r\n\r\npragma solidity ^0.8.0;\r\n\r\n//import contract interacting with Voting\r\nimport \"./VoterRegistration.sol\";\r\nimport \"./CandidateManagement.sol\";\r\n\r\ncontract Voting {\r\n    VoterRegistration voterRegistration;\r\n    CandidateManagement candidateManagement;\r\n\r\n    //Keeping track of wether an address (voter) has voted or not\r\n    mapping(address => bool) public hasVoted;\r\n\r\n    //Casting vote event\r\n    event VoteCast(address voter, uint256 candidateId);\r\n\r\n    function initialize(\r\n        address _voterRegistrationAddress,\r\n        address _candidateManagementAddress\r\n    ) public {\r\n        require(\r\n            _voterRegistrationAddress != address(0) &&\r\n                _candidateManagementAddress != address(0),\r\n            \"Contract addresses cannot be 0.\"\r\n        );\r\n        //Contract addresses\r\n        voterRegistration = VoterRegistration(_voterRegistrationAddress);\r\n        candidateManagement = CandidateManagement(_candidateManagementAddress);\r\n    }\r\n\r\n    function vote(uint256 _candidateId) public {\r\n        //Check: Is registered? Has voted yet?\r\n        require(\r\n            address(voterRegistration) != address(0),\r\n            \"Contract already initialized.\"\r\n        );\r\n        require(\r\n            voterRegistration.isVoterRegistered(msg.sender),\r\n            \"Voter is not registered.\"\r\n        );\r\n        require(!hasVoted[msg.sender], \"Voter has already voted.\");\r\n\r\n        //Record vote in Voter\r\n        hasVoted[msg.sender] = true;\r\n\r\n        //Record vote in CandidateManagement\r\n        candidateManagement.recordVote(_candidateId);\r\n\r\n        //Successfull vote\r\n        emit VoteCast(msg.sender, _candidateId);\r\n    }\r\n}",
  "sourcePath": "F:\\CCT 3\\2 Dist. Digital Transactions\\CA1\\ChainVote\\contracts\\Voting.sol",
  "compiler": {
    "name": "solc",
    "version": "0.8.23+commit.f704f362.Emscripten.clang"
  },
  "schemaVersion": "3.4.16",
  "updatedAt": "2023-12-05T12:30:52.816Z",
  "devdoc": {
    "kind": "dev",
    "methods": {},
    "version": 1
  },
  "userdoc": {
    "kind": "user",
    "methods": {},
    "version": 1
  }
}